{
  "_format": "hh-sol-artifact-1",
  "contractName": "Staking",
  "sourceName": "contracts/StakingContract.sol",
  "abi": [
    {
      "inputs": [
        {
          "internalType": "contract IERC20",
          "name": "token_",
          "type": "address"
        }
      ],
      "stateMutability": "nonpayable",
      "type": "constructor"
    },
    {
      "anonymous": false,
      "inputs": [
        {
          "indexed": false,
          "internalType": "address",
          "name": "sender",
          "type": "address"
        },
        {
          "indexed": false,
          "internalType": "uint256",
          "name": "amount",
          "type": "uint256"
        }
      ],
      "name": "Claim",
      "type": "event"
    },
    {
      "anonymous": false,
      "inputs": [
        {
          "indexed": false,
          "internalType": "address",
          "name": "sender",
          "type": "address"
        },
        {
          "indexed": false,
          "internalType": "uint256",
          "name": "amount",
          "type": "uint256"
        }
      ],
      "name": "Compound",
      "type": "event"
    },
    {
      "anonymous": false,
      "inputs": [
        {
          "indexed": false,
          "internalType": "address",
          "name": "sender",
          "type": "address"
        },
        {
          "indexed": false,
          "internalType": "uint256",
          "name": "amount",
          "type": "uint256"
        }
      ],
      "name": "Deposit",
      "type": "event"
    },
    {
      "anonymous": false,
      "inputs": [
        {
          "indexed": false,
          "internalType": "address",
          "name": "sender",
          "type": "address"
        },
        {
          "indexed": false,
          "internalType": "uint256",
          "name": "amount",
          "type": "uint256"
        }
      ],
      "name": "Withdraw",
      "type": "event"
    },
    {
      "inputs": [
        {
          "internalType": "address",
          "name": "",
          "type": "address"
        }
      ],
      "name": "balanceOf",
      "outputs": [
        {
          "internalType": "uint256",
          "name": "",
          "type": "uint256"
        }
      ],
      "stateMutability": "view",
      "type": "function"
    },
    {
      "inputs": [],
      "name": "claim",
      "outputs": [],
      "stateMutability": "nonpayable",
      "type": "function"
    },
    {
      "inputs": [
        {
          "internalType": "address",
          "name": "",
          "type": "address"
        }
      ],
      "name": "claimed",
      "outputs": [
        {
          "internalType": "uint256",
          "name": "",
          "type": "uint256"
        }
      ],
      "stateMutability": "view",
      "type": "function"
    },
    {
      "inputs": [],
      "name": "compound",
      "outputs": [],
      "stateMutability": "nonpayable",
      "type": "function"
    },
    {
      "inputs": [
        {
          "internalType": "uint256",
          "name": "amount_",
          "type": "uint256"
        }
      ],
      "name": "deposit",
      "outputs": [],
      "stateMutability": "nonpayable",
      "type": "function"
    },
    {
      "inputs": [
        {
          "internalType": "address",
          "name": "",
          "type": "address"
        }
      ],
      "name": "lastUpdated",
      "outputs": [
        {
          "internalType": "uint256",
          "name": "",
          "type": "uint256"
        }
      ],
      "stateMutability": "view",
      "type": "function"
    },
    {
      "inputs": [],
      "name": "rewardBalance",
      "outputs": [
        {
          "internalType": "uint256",
          "name": "",
          "type": "uint256"
        }
      ],
      "stateMutability": "view",
      "type": "function"
    },
    {
      "inputs": [
        {
          "internalType": "address",
          "name": "address_",
          "type": "address"
        }
      ],
      "name": "rewards",
      "outputs": [
        {
          "internalType": "uint256",
          "name": "",
          "type": "uint256"
        }
      ],
      "stateMutability": "view",
      "type": "function"
    },
    {
      "inputs": [],
      "name": "rewardsPerHour",
      "outputs": [
        {
          "internalType": "uint256",
          "name": "",
          "type": "uint256"
        }
      ],
      "stateMutability": "view",
      "type": "function"
    },
    {
      "inputs": [],
      "name": "stakeBalance",
      "outputs": [
        {
          "internalType": "uint256",
          "name": "",
          "type": "uint256"
        }
      ],
      "stateMutability": "view",
      "type": "function"
    },
    {
      "inputs": [],
      "name": "token",
      "outputs": [
        {
          "internalType": "contract IERC20",
          "name": "",
          "type": "address"
        }
      ],
      "stateMutability": "view",
      "type": "function"
    },
    {
      "inputs": [
        {
          "internalType": "uint256",
          "name": "amount_",
          "type": "uint256"
        }
      ],
      "name": "withdraw",
      "outputs": [],
      "stateMutability": "nonpayable",
      "type": "function"
    }
  ],
  "bytecode": "0x60806040526103e8600155600060025534801561001b57600080fd5b506040516108b43803806108b483398101604081905261003a9161005f565b600080546001600160a01b0319166001600160a01b039290921691909117905561008f565b60006020828403121561007157600080fd5b81516001600160a01b038116811461008857600080fd5b9392505050565b6108168061009e6000396000f3fe608060405234801561001057600080fd5b50600436106100b45760003560e01c806393bc9dfe1161007157806393bc9dfe14610145578063aa5c3ab41461014e578063b6b55f2514610156578063c884ef8314610169578063f69e204614610189578063fc0c546a1461019157600080fd5b80630700037d146100b95780630a6f93e6146100df5780632e1a7d4d146100ff5780634e71d92d1461011457806370a082311461011c5780638e7271fa1461013c575b600080fd5b6100cc6100c73660046106d6565b6101bc565b6040519081526020015b60405180910390f35b6100cc6100ed3660046106d6565b60046020526000908152604090205481565b61011261010d366004610706565b6101cd565b005b61011261032c565b6100cc61012a3660046106d6565b60036020526000908152604090205481565b6100cc60015481565b6100cc60025481565b6100cc6103fc565b610112610164366004610706565b61040b565b6100cc6101773660046106d6565b60056020526000908152604090205481565b610112610417565b6000546101a4906001600160a01b031681565b6040516001600160a01b0390911681526020016100d6565b60006101c782610421565b92915050565b336000908152600360205260409020548111156102255760405162461bcd60e51b8152602060048201526012602482015271496e73756666696369656e742066756e647360701b604482015260640160405180910390fd5b61022d610476565b336000908152600360205260408120805483929061024c908490610735565b9250508190555080600260008282546102659190610735565b909155505060005460405163a9059cbb60e01b8152336004820152602481018390526001600160a01b039091169063a9059cbb90604401602060405180830381600087803b1580156102b657600080fd5b505af11580156102ca573d6000803e3d6000fd5b505050506040513d601f19601f820116820180604052508101906102ee919061074c565b5060408051338152602081018390527f884edad9ce6fa2440d8a54cc123490eb96d2768479d49ff9c7366125a942436491015b60405180910390a150565b600061033733610421565b60005460405163a9059cbb60e01b8152336004820152602481018390529192506001600160a01b03169063a9059cbb90604401602060405180830381600087803b15801561038457600080fd5b505af1158015610398573d6000803e3d6000fd5b505050506040513d601f19601f820116820180604052508101906103bc919061074c565b506103c681610503565b60408051338152602081018390527f47cee97cb7acd717b3c0aa1435d004cd5b3c8c57d70dbceb4e4458bbd60e39d49101610321565b600061040661053c565b905090565b610414816105c8565b50565b61041f610476565b565b6000600154610e10610433919061076e565b6001600160a01b0383166000908152600360209081526040808320546004909252909120546104629042610735565b61046c919061076e565b6101c7919061078d565b600061048133610421565b336000908152600360205260408120805492935083929091906104a59084906107af565b9250508190555080600260008282546104be91906107af565b909155506104cd905081610503565b60408051338152602081018390527f169f1815ebdea059aac3bb00ec9a9594c7a5ffcb64a17e8392b5d84909a145569101610321565b33600090815260056020526040812080548392906105229084906107af565b909155505033600090815260046020526040902042905550565b600254600080546040516370a0823160e01b81523060048201529192916001600160a01b03909116906370a082319060240160206040518083038186803b15801561058657600080fd5b505afa15801561059a573d6000803e3d6000fd5b505050506040513d601f19601f820116820180604052508101906105be91906107c7565b6104069190610735565b6000546040516323b872dd60e01b8152336004820152306024820152604481018390526001600160a01b03909116906323b872dd90606401602060405180830381600087803b15801561061a57600080fd5b505af115801561062e573d6000803e3d6000fd5b505050506040513d601f19601f82011682018060405250810190610652919061074c565b5033600090815260036020526040812080548392906106729084906107af565b90915550503360009081526004602052604081204290556002805483929061069b9084906107af565b909155505060408051338152602081018390527fe1fffcc4923d04b559f4d29a8bfc6cda04eb5b0d3c460751c2402c5c5cc9109c9101610321565b6000602082840312156106e857600080fd5b81356001600160a01b03811681146106ff57600080fd5b9392505050565b60006020828403121561071857600080fd5b5035919050565b634e487b7160e01b600052601160045260246000fd5b6000828210156107475761074761071f565b500390565b60006020828403121561075e57600080fd5b815180151581146106ff57600080fd5b60008160001904831182151516156107885761078861071f565b500290565b6000826107aa57634e487b7160e01b600052601260045260246000fd5b500490565b600082198211156107c2576107c261071f565b500190565b6000602082840312156107d957600080fd5b505191905056fea2646970667358221220d2f0d676d053c651577c045f1a4cfe54b9d0f1daf419a22ef2c60c2e8ff012a764736f6c63430008090033",
  "linkReferences": {},
  "deployedLinkReferences": {}
}