{
  "_format": "hh-sol-artifact-1",
  "contractName": "StakingContract",
  "sourceName": "contracts/Staking.sol",
  "abi": [
    {
      "inputs": [
        {
          "internalType": "address",
          "name": "_tokenAddress",
          "type": "address"
        }
      ],
      "stateMutability": "nonpayable",
      "type": "constructor"
    },
    {
      "anonymous": false,
      "inputs": [
        {
          "indexed": true,
          "internalType": "address",
          "name": "account",
          "type": "address"
        },
        {
          "indexed": false,
          "internalType": "uint256",
          "name": "amount",
          "type": "uint256"
        }
      ],
      "name": "Staked",
      "type": "event"
    },
    {
      "anonymous": false,
      "inputs": [
        {
          "indexed": true,
          "internalType": "address",
          "name": "account",
          "type": "address"
        },
        {
          "indexed": false,
          "internalType": "uint256",
          "name": "amount",
          "type": "uint256"
        }
      ],
      "name": "Unstaked",
      "type": "event"
    },
    {
      "inputs": [],
      "name": "ClaimReward",
      "outputs": [],
      "stateMutability": "nonpayable",
      "type": "function"
    },
    {
      "inputs": [],
      "name": "GetPassedHour",
      "outputs": [
        {
          "internalType": "uint256",
          "name": "",
          "type": "uint256"
        }
      ],
      "stateMutability": "view",
      "type": "function"
    },
    {
      "inputs": [],
      "name": "StakingApy",
      "outputs": [
        {
          "internalType": "uint256",
          "name": "",
          "type": "uint256"
        }
      ],
      "stateMutability": "view",
      "type": "function"
    },
    {
      "inputs": [],
      "name": "TStake",
      "outputs": [
        {
          "internalType": "uint256",
          "name": "",
          "type": "uint256"
        }
      ],
      "stateMutability": "view",
      "type": "function"
    },
    {
      "inputs": [],
      "name": "UStake",
      "outputs": [
        {
          "internalType": "uint256",
          "name": "",
          "type": "uint256"
        }
      ],
      "stateMutability": "view",
      "type": "function"
    },
    {
      "inputs": [],
      "name": "UserStake",
      "outputs": [
        {
          "internalType": "uint256",
          "name": "",
          "type": "uint256"
        }
      ],
      "stateMutability": "view",
      "type": "function"
    },
    {
      "inputs": [],
      "name": "getBalance",
      "outputs": [
        {
          "internalType": "uint256",
          "name": "",
          "type": "uint256"
        }
      ],
      "stateMutability": "view",
      "type": "function"
    },
    {
      "inputs": [],
      "name": "rewardsPerHour",
      "outputs": [
        {
          "internalType": "uint256",
          "name": "",
          "type": "uint256"
        }
      ],
      "stateMutability": "view",
      "type": "function"
    },
    {
      "inputs": [],
      "name": "rewardsperHourToUser",
      "outputs": [
        {
          "internalType": "uint256",
          "name": "",
          "type": "uint256"
        }
      ],
      "stateMutability": "view",
      "type": "function"
    },
    {
      "inputs": [
        {
          "internalType": "uint256",
          "name": "_amount",
          "type": "uint256"
        }
      ],
      "name": "stake",
      "outputs": [],
      "stateMutability": "nonpayable",
      "type": "function"
    },
    {
      "inputs": [
        {
          "internalType": "address",
          "name": "",
          "type": "address"
        }
      ],
      "name": "stakedBalances",
      "outputs": [
        {
          "internalType": "uint256",
          "name": "",
          "type": "uint256"
        }
      ],
      "stateMutability": "view",
      "type": "function"
    },
    {
      "inputs": [
        {
          "internalType": "address",
          "name": "",
          "type": "address"
        }
      ],
      "name": "stakedTimestamps",
      "outputs": [
        {
          "internalType": "uint256",
          "name": "",
          "type": "uint256"
        }
      ],
      "stateMutability": "view",
      "type": "function"
    },
    {
      "inputs": [],
      "name": "stakingDuration",
      "outputs": [
        {
          "internalType": "uint256",
          "name": "",
          "type": "uint256"
        }
      ],
      "stateMutability": "view",
      "type": "function"
    },
    {
      "inputs": [],
      "name": "stakingRate",
      "outputs": [
        {
          "internalType": "uint256",
          "name": "",
          "type": "uint256"
        }
      ],
      "stateMutability": "view",
      "type": "function"
    },
    {
      "inputs": [],
      "name": "token",
      "outputs": [
        {
          "internalType": "contract IERC20",
          "name": "",
          "type": "address"
        }
      ],
      "stateMutability": "view",
      "type": "function"
    },
    {
      "inputs": [],
      "name": "totalStaked",
      "outputs": [
        {
          "internalType": "uint256",
          "name": "",
          "type": "uint256"
        }
      ],
      "stateMutability": "view",
      "type": "function"
    },
    {
      "inputs": [],
      "name": "unstake",
      "outputs": [],
      "stateMutability": "nonpayable",
      "type": "function"
    }
  ],
  "bytecode": "0x608060405262093a80600155655af3107a400060055534801561002157600080fd5b50604051610a27380380610a278339810160408190526100409161006d565b600080546001600160a01b0319166001600160a01b0392909216919091178155600281905560045561009d565b60006020828403121561007f57600080fd5b81516001600160a01b038116811461009657600080fd5b9392505050565b61097b806100ac6000396000f3fe608060405234801561001057600080fd5b506004361061010b5760003560e01c8063817b1cd2116100a2578063972dc7ab11610071578063972dc7ab146101c5578063a694fc3a146101ce578063ab250820146101e1578063c63a6ad2146101e9578063fc0c546a146101f257600080fd5b8063817b1cd2146101a357806381e9db30146101ac5780638e7271fa146101b4578063968df03f146101bd57600080fd5b806348c389c2116100de57806348c389c21461015d57806379372f9a146101725780637d31b6e81461017a5780638005a7de1461019a57600080fd5b806312065fe0146101105780631460fa871461012b5780632def66201461014b5780633df036e114610155575b600080fd5b61011861021d565b6040519081526020015b60405180910390f35b61011861013936600461083b565b60066020526000908152604090205481565b61015361029e565b005b61011861046f565b33600090815260066020526040902054610118565b6101536104a0565b61011861018836600461083b565b60076020526000908152604090205481565b61011860015481565b61011860035481565b6101186105f2565b61011860055481565b600354610118565b61011860045481565b6101536101dc36600461086b565b610619565b600254610118565b61011860025481565b600054610205906001600160a01b031681565b6040516001600160a01b039091168152602001610122565b600080546040516370a0823160e01b81523060048201526001600160a01b03909116906370a082319060240160206040518083038186803b15801561026157600080fd5b505afa158015610275573d6000803e3d6000fd5b505050506040513d601f19601f820116820180604052508101906102999190610884565b905090565b336000908152600660205260409020546102ff5760405162461bcd60e51b815260206004820152601f60248201527f596f7520646f6e277420686176652061207374616b65642062616c616e63650060448201526064015b60405180910390fd5b6001543360009081526007602052604090205461031c91906108b3565b4210156103775760405162461bcd60e51b815260206004820152602360248201527f5374616b696e67206475726174696f6e20686173206e6f7420706173736564206044820152621e595d60ea1b60648201526084016102f6565b3360009081526006602090815260408083208054908490556007909252822082905560038054919283926103ac9084906108cb565b909155505060005460405163a9059cbb60e01b8152336004820152602481018390526001600160a01b039091169063a9059cbb90604401602060405180830381600087803b1580156103fd57600080fd5b505af1158015610411573d6000803e3d6000fd5b505050506040513d601f19601f8201168201806040525081019061043591906108e2565b5060405181815233907f0f5bb82176feb1b5e747e28471aa92156a04d9f3ab9f45f28e2d704232b93f75906020015b60405180910390a250565b60006104796105f2565b600554336000908152600660205260409020546104969190610904565b6102999190610904565b60006104aa61046f565b3060009081526006602052604090205490915081106105225760405162461bcd60e51b815260206004820152602e60248201527f436f6e747261637420646f65736e6f7420656e6f7567682062616c616e63652060448201526d1d1bc819da5d99481c995dd85c9960921b60648201526084016102f6565b600081116105645760405162461bcd60e51b815260206004820152600f60248201526e42616c616e6365206973207a65726f60881b60448201526064016102f6565b6000546040516323b872dd60e01b8152306004820152336024820152604481018390526001600160a01b03909116906323b872dd90606401602060405180830381600087803b1580156105b657600080fd5b505af11580156105ca573d6000803e3d6000fd5b505050506040513d601f19601f820116820180604052508101906105ee91906108e2565b5050565b3360009081526007602052604081205461060f90610e1090610923565b61029990426108cb565b600081116106695760405162461bcd60e51b815260206004820181905260248201527f416d6f756e74206d7573742062652067726561746572207468616e207a65726f60448201526064016102f6565b6000546040516370a0823160e01b815233600482015282916001600160a01b0316906370a082319060240160206040518083038186803b1580156106ac57600080fd5b505afa1580156106c0573d6000803e3d6000fd5b505050506040513d601f19601f820116820180604052508101906106e49190610884565b116107315760405162461bcd60e51b815260206004820152601b60248201527f596f752068617665206e6f7420656e6f7567682062616c616e6365000000000060448201526064016102f6565b6000546040516323b872dd60e01b8152336004820152306024820152604481018390526001600160a01b03909116906323b872dd90606401602060405180830381600087803b15801561078357600080fd5b505af1158015610797573d6000803e3d6000fd5b505050506040513d601f19601f820116820180604052508101906107bb91906108e2565b5033600090815260066020526040812080548392906107db9084906108b3565b9091555050336000908152600760205260408120429055600380548392906108049084906108b3565b909155505060405181815233907f9e71bc8eea02a63969f509818f2dafb9254532904319f9dbda79b67bd34a5f3d90602001610464565b60006020828403121561084d57600080fd5b81356001600160a01b038116811461086457600080fd5b9392505050565b60006020828403121561087d57600080fd5b5035919050565b60006020828403121561089657600080fd5b5051919050565b634e487b7160e01b600052601160045260246000fd5b600082198211156108c6576108c661089d565b500190565b6000828210156108dd576108dd61089d565b500390565b6000602082840312156108f457600080fd5b8151801515811461086457600080fd5b600081600019048311821515161561091e5761091e61089d565b500290565b60008261094057634e487b7160e01b600052601260045260246000fd5b50049056fea26469706673582212209b911de0c77d0a3ecf804fb2c828bc57b0e7c06344a28e06b3e8b22ff551827f64736f6c63430008090033",
  "linkReferences": {},
  "deployedLinkReferences": {}
}