{
  "_format": "hh-sol-artifact-1",
  "contractName": "erc20",
  "sourceName": "contracts/Lock.sol",
  "abi": [
    {
      "inputs": [],
      "stateMutability": "nonpayable",
      "type": "constructor"
    },
    {
      "anonymous": false,
      "inputs": [
        {
          "indexed": true,
          "internalType": "address",
          "name": "_owner",
          "type": "address"
        },
        {
          "indexed": true,
          "internalType": "address",
          "name": "_spender",
          "type": "address"
        },
        {
          "indexed": false,
          "internalType": "uint256",
          "name": "_value",
          "type": "uint256"
        }
      ],
      "name": "Approval",
      "type": "event"
    },
    {
      "anonymous": false,
      "inputs": [
        {
          "indexed": true,
          "internalType": "address",
          "name": "_from",
          "type": "address"
        },
        {
          "indexed": true,
          "internalType": "address",
          "name": "_to",
          "type": "address"
        },
        {
          "indexed": false,
          "internalType": "uint256",
          "name": "_value",
          "type": "uint256"
        }
      ],
      "name": "Transfer",
      "type": "event"
    },
    {
      "inputs": [
        {
          "internalType": "address",
          "name": "",
          "type": "address"
        },
        {
          "internalType": "address",
          "name": "",
          "type": "address"
        }
      ],
      "name": "GetBalance",
      "outputs": [
        {
          "internalType": "uint256",
          "name": "",
          "type": "uint256"
        }
      ],
      "stateMutability": "view",
      "type": "function"
    },
    {
      "inputs": [
        {
          "internalType": "address",
          "name": "_owner",
          "type": "address"
        },
        {
          "internalType": "address",
          "name": "_spender",
          "type": "address"
        }
      ],
      "name": "allowance",
      "outputs": [
        {
          "internalType": "uint256",
          "name": "",
          "type": "uint256"
        }
      ],
      "stateMutability": "view",
      "type": "function"
    },
    {
      "inputs": [
        {
          "internalType": "address",
          "name": "_spender",
          "type": "address"
        },
        {
          "internalType": "uint256",
          "name": "_value",
          "type": "uint256"
        }
      ],
      "name": "approve",
      "outputs": [
        {
          "internalType": "bool",
          "name": "",
          "type": "bool"
        }
      ],
      "stateMutability": "nonpayable",
      "type": "function"
    },
    {
      "inputs": [
        {
          "internalType": "address",
          "name": "_owner",
          "type": "address"
        }
      ],
      "name": "balanceOf",
      "outputs": [
        {
          "internalType": "uint256",
          "name": "",
          "type": "uint256"
        }
      ],
      "stateMutability": "view",
      "type": "function"
    },
    {
      "inputs": [
        {
          "internalType": "address",
          "name": "",
          "type": "address"
        }
      ],
      "name": "checkBalance",
      "outputs": [
        {
          "internalType": "uint256",
          "name": "",
          "type": "uint256"
        }
      ],
      "stateMutability": "view",
      "type": "function"
    },
    {
      "inputs": [],
      "name": "decimals",
      "outputs": [
        {
          "internalType": "uint256",
          "name": "",
          "type": "uint256"
        }
      ],
      "stateMutability": "view",
      "type": "function"
    },
    {
      "inputs": [],
      "name": "name",
      "outputs": [
        {
          "internalType": "string",
          "name": "",
          "type": "string"
        }
      ],
      "stateMutability": "view",
      "type": "function"
    },
    {
      "inputs": [],
      "name": "symbol",
      "outputs": [
        {
          "internalType": "string",
          "name": "",
          "type": "string"
        }
      ],
      "stateMutability": "view",
      "type": "function"
    },
    {
      "inputs": [],
      "name": "totalSupply",
      "outputs": [
        {
          "internalType": "uint256",
          "name": "",
          "type": "uint256"
        }
      ],
      "stateMutability": "view",
      "type": "function"
    },
    {
      "inputs": [
        {
          "internalType": "address",
          "name": "_to",
          "type": "address"
        },
        {
          "internalType": "uint256",
          "name": "_value",
          "type": "uint256"
        }
      ],
      "name": "transfer",
      "outputs": [
        {
          "internalType": "bool",
          "name": "",
          "type": "bool"
        }
      ],
      "stateMutability": "nonpayable",
      "type": "function"
    },
    {
      "inputs": [
        {
          "internalType": "address",
          "name": "_from",
          "type": "address"
        },
        {
          "internalType": "address",
          "name": "_to",
          "type": "address"
        },
        {
          "internalType": "uint256",
          "name": "_value",
          "type": "uint256"
        }
      ],
      "name": "transferFrom",
      "outputs": [
        {
          "internalType": "bool",
          "name": "",
          "type": "bool"
        }
      ],
      "stateMutability": "nonpayable",
      "type": "function"
    }
  ],
  "bytecode": "0x608060405234801561001057600080fd5b50600080546001600160a01b0319163317905560408051808201909152600b8082526a03a32b9ba102a37b5b2b7160ad1b6020909201918252610055916001916100ac565b50604080518082019091526004808252635453544560e01b6020909201918252610081916002916100ac565b50601260035569152d02c7e14af6800000600481905533600090815260056020526040902055610180565b8280546100b890610145565b90600052602060002090601f0160209004810192826100da5760008555610120565b82601f106100f357805160ff1916838001178555610120565b82800160010185558215610120579182015b82811115610120578251825591602001919060010190610105565b5061012c929150610130565b5090565b5b8082111561012c5760008155600101610131565b600181811c9082168061015957607f821691505b6020821081141561017a57634e487b7160e01b600052602260045260246000fd5b50919050565b6106788061018f6000396000f3fe608060405234801561001057600080fd5b50600436106100a95760003560e01c8063313ce56711610071578063313ce5671461013f5780635f5152261461014757806370a082311461016757806395d89b4114610190578063a9059cbb14610198578063dd62ed3e146101ab57600080fd5b806306fdde03146100ae578063095ea7b3146100cc57806318160ddd146100ef57806319be65f01461010157806323b872dd1461012c575b600080fd5b6100b66101e4565b6040516100c39190610496565b60405180910390f35b6100df6100da366004610507565b610276565b60405190151581526020016100c3565b6004545b6040519081526020016100c3565b6100f361010f366004610531565b600660209081526000928352604080842090915290825290205481565b6100df61013a366004610564565b61030a565b6003546100f3565b6100f36101553660046105a0565b60056020526000908152604090205481565b6100f36101753660046105a0565b6001600160a01b031660009081526005602052604090205490565b6100b66103f7565b6100df6101a6366004610507565b610406565b6100f36101b9366004610531565b6001600160a01b03918216600090815260066020908152604080832093909416825291909152205490565b6060600180546101f3906105c2565b80601f016020809104026020016040519081016040528092919081815260200182805461021f906105c2565b801561026c5780601f106102415761010080835404028352916020019161026c565b820191906000526020600020905b81548152906001019060200180831161024f57829003601f168201915b5050505050905090565b3360009081526005602052604081205482111561029257600080fd5b6001600160a01b0383166102a557600080fd5b3360008181526006602090815260408083206001600160a01b03881680855290835292819020869055518581529192917f8c5be1e5ebec7d5bd14f71427d1e84f3dd0314c0f7b2291e5b200ac8c7c3b92591015b60405180910390a350600192915050565b6001600160a01b038316600090815260056020526040812080548391908390610334908490610613565b90915550506001600160a01b03841660009081526006602090815260408083203384529091528120805484929061036c908490610613565b90915550506001600160a01b0383166000908152600560205260408120805484929061039990849061062a565b92505081905550826001600160a01b0316846001600160a01b03167fddf252ad1be2c89b69c2b068fc378daa952ba7f163c4a11628f55a4df523b3ef846040516103e591815260200190565b60405180910390a35060019392505050565b6060600280546101f3906105c2565b33600090815260056020526040812080548391908390610427908490610613565b90915550506001600160a01b0383166000908152600560205260408120805484929061045490849061062a565b90915550506040518281526001600160a01b0384169033907fddf252ad1be2c89b69c2b068fc378daa952ba7f163c4a11628f55a4df523b3ef906020016102f9565b600060208083528351808285015260005b818110156104c3578581018301518582016040015282016104a7565b818111156104d5576000604083870101525b50601f01601f1916929092016040019392505050565b80356001600160a01b038116811461050257600080fd5b919050565b6000806040838503121561051a57600080fd5b610523836104eb565b946020939093013593505050565b6000806040838503121561054457600080fd5b61054d836104eb565b915061055b602084016104eb565b90509250929050565b60008060006060848603121561057957600080fd5b610582846104eb565b9250610590602085016104eb565b9150604084013590509250925092565b6000602082840312156105b257600080fd5b6105bb826104eb565b9392505050565b600181811c908216806105d657607f821691505b602082108114156105f757634e487b7160e01b600052602260045260246000fd5b50919050565b634e487b7160e01b600052601160045260246000fd5b600082821015610625576106256105fd565b500390565b6000821982111561063d5761063d6105fd565b50019056fea264697066735822122039f01e0ad2045b04905250519be3496cf60f06238424ea0fde31116a7427c91b64736f6c63430008090033",
  "linkReferences": {},
  "deployedLinkReferences": {}
}